{
  "address": "0xcB5494720E9CAe2b184d9C24300405b1132d8D1D",
  "abi": [
    {
      "inputs": [
        {
          "components": [
            {
              "internalType": "address",
              "name": "to",
              "type": "address"
            },
            {
              "internalType": "uint256",
              "name": "value",
              "type": "uint256"
            },
            {
              "internalType": "bytes",
              "name": "data",
              "type": "bytes"
            }
          ],
          "internalType": "struct BatchExecutor.Call[]",
          "name": "calls",
          "type": "tuple[]"
        }
      ],
      "name": "execute",
      "outputs": [],
      "stateMutability": "payable",
      "type": "function"
    },
    {
      "stateMutability": "payable",
      "type": "receive"
    }
  ],
  "transactionHash": "0xbf9df18e35c0f75efd7c251bfd2d689d875097bc882f8936c3e54d278229b44f",
  "args": [],
  "numDeployments": 5,
  "solcInputHash": "886a83c64dfecf2b7a2985d6b355d3f4",
  "bytecode": "0x6080604052348015600f57600080fd5b506104c68061001f6000396000f3fe6080604052600436106100225760003560e01c80633f707e6b1461002e57610029565b3661002957005b600080fd5b6100486004803603810190610043919061021a565b61004a565b005b60005b828290508110156101a657600083838381811061006d5761006c610267565b5b905060200281019061007f91906102a5565b6000016020810190610091919061032b565b73ffffffffffffffffffffffffffffffffffffffff168484848181106100ba576100b9610267565b5b90506020028101906100cc91906102a5565b602001358585858181106100e3576100e2610267565b5b90506020028101906100f591906102a5565b80604001906101049190610358565b6040516101129291906103fa565b60006040518083038185875af1925050503d806000811461014f576040519150601f19603f3d011682016040523d82523d6000602084013e610154565b606091505b5050905080610198576040517f08c379a000000000000000000000000000000000000000000000000000000000815260040161018f90610470565b60405180910390fd5b50808060010191505061004d565b505050565b600080fd5b600080fd5b600080fd5b600080fd5b600080fd5b60008083601f8401126101da576101d96101b5565b5b8235905067ffffffffffffffff8111156101f7576101f66101ba565b5b602083019150836020820283011115610213576102126101bf565b5b9250929050565b60008060208385031215610231576102306101ab565b5b600083013567ffffffffffffffff81111561024f5761024e6101b0565b5b61025b858286016101c4565b92509250509250929050565b7f4e487b7100000000000000000000000000000000000000000000000000000000600052603260045260246000fd5b600080fd5b600080fd5b600080fd5b6000823560016060038336030381126102c1576102c0610296565b5b80830191505092915050565b600073ffffffffffffffffffffffffffffffffffffffff82169050919050565b60006102f8826102cd565b9050919050565b610308816102ed565b811461031357600080fd5b50565b600081359050610325816102ff565b92915050565b600060208284031215610341576103406101ab565b5b600061034f84828501610316565b91505092915050565b6000808335600160200384360303811261037557610374610296565b5b80840192508235915067ffffffffffffffff8211156103975761039661029b565b5b6020830192506001820236038313156103b3576103b26102a0565b5b509250929050565b600081905092915050565b82818337600083830152505050565b60006103e183856103bb565b93506103ee8385846103c6565b82840190509392505050565b60006104078284866103d5565b91508190509392505050565b600082825260208201905092915050565b7f42617463682063616c6c206661696c6564000000000000000000000000000000600082015250565b600061045a601183610413565b915061046582610424565b602082019050919050565b600060208201905081810360008301526104898161044d565b905091905056fea26469706673582212204cb53fa9d6dca1697501e11b60f9f667a256403af588590e2850de21c86ded3d64736f6c634300081c0033",
  "devdoc": {
    "kind": "dev",
    "methods": {},
    "version": 1
  },
  "userdoc": {
    "kind": "user",
    "methods": {},
    "version": 1
  },
  "storageLayout": {
    "storage": [],
    "types": null
  }
}