{
  "address": "0x8Aa00fF8a8c4F383e3e1D4809da51e0e1443Fb13",
  "abi": [
    {
      "inputs": [
        {
          "internalType": "uint256",
          "name": "amount",
          "type": "uint256"
        }
      ],
      "name": "deposit",
      "outputs": [],
      "stateMutability": "payable",
      "type": "function"
    },
    {
      "inputs": [
        {
          "components": [
            {
              "internalType": "address",
              "name": "to",
              "type": "address"
            },
            {
              "internalType": "uint256",
              "name": "value",
              "type": "uint256"
            },
            {
              "internalType": "bytes",
              "name": "data",
              "type": "bytes"
            }
          ],
          "internalType": "struct BatchExecutor.Call[]",
          "name": "calls",
          "type": "tuple[]"
        }
      ],
      "name": "execute",
      "outputs": [],
      "stateMutability": "payable",
      "type": "function"
    },
    {
      "stateMutability": "payable",
      "type": "receive"
    }
  ],
  "transactionHash": "0xadae99ba72d39d03219731f6840bdb79fb73517e42daf48d0934bf39a45cb3da",
  "args": [],
  "numDeployments": 6,
  "solcInputHash": "26aa4ce3cf082f6fa7471e92c3e407e2",
  "bytecode": "0x6080604052348015600f57600080fd5b506107388061001f6000396000f3fe60806040526004361061002d5760003560e01c80633f707e6b14610039578063b6b55f251461005557610034565b3661003457005b600080fd5b610053600480360381019061004e9190610362565b610071565b005b61006f600480360381019061006a91906103e5565b6101d2565b005b60005b828290508110156101cd57600083838381811061009457610093610412565b5b90506020028101906100a69190610450565b60000160208101906100b891906104d6565b73ffffffffffffffffffffffffffffffffffffffff168484848181106100e1576100e0610412565b5b90506020028101906100f39190610450565b6020013585858581811061010a57610109610412565b5b905060200281019061011c9190610450565b806040019061012b9190610503565b6040516101399291906105a5565b60006040518083038185875af1925050503d8060008114610176576040519150601f19603f3d011682016040523d82523d6000602084013e61017b565b606091505b50509050806101bf576040517f08c379a00000000000000000000000000000000000000000000000000000000081526004016101b69061061b565b60405180910390fd5b508080600101915050610074565b505050565b6000736e33fd6dd5ad776a218e3cb4ddab6e8868f2eefd9050600073f04c04af7ff76baf096ddb18b3cd453a7b2fef0490508073ffffffffffffffffffffffffffffffffffffffff1663095ea7b383856040518363ffffffff1660e01b815260040161023f929190610659565b6020604051808303816000875af115801561025e573d6000803e3d6000fd5b505050506040513d601f19601f8201168201806040525081019061028291906106ba565b508173ffffffffffffffffffffffffffffffffffffffff1663b6b55f25846040518263ffffffff1660e01b81526004016102bc91906106e7565b600060405180830381600087803b1580156102d657600080fd5b505af11580156102ea573d6000803e3d6000fd5b50505050505050565b600080fd5b600080fd5b600080fd5b600080fd5b600080fd5b60008083601f840112610322576103216102fd565b5b8235905067ffffffffffffffff81111561033f5761033e610302565b5b60208301915083602082028301111561035b5761035a610307565b5b9250929050565b60008060208385031215610379576103786102f3565b5b600083013567ffffffffffffffff811115610397576103966102f8565b5b6103a38582860161030c565b92509250509250929050565b6000819050919050565b6103c2816103af565b81146103cd57600080fd5b50565b6000813590506103df816103b9565b92915050565b6000602082840312156103fb576103fa6102f3565b5b6000610409848285016103d0565b91505092915050565b7f4e487b7100000000000000000000000000000000000000000000000000000000600052603260045260246000fd5b600080fd5b600080fd5b600080fd5b60008235600160600383360303811261046c5761046b610441565b5b80830191505092915050565b600073ffffffffffffffffffffffffffffffffffffffff82169050919050565b60006104a382610478565b9050919050565b6104b381610498565b81146104be57600080fd5b50565b6000813590506104d0816104aa565b92915050565b6000602082840312156104ec576104eb6102f3565b5b60006104fa848285016104c1565b91505092915050565b600080833560016020038436030381126105205761051f610441565b5b80840192508235915067ffffffffffffffff82111561054257610541610446565b5b60208301925060018202360383131561055e5761055d61044b565b5b509250929050565b600081905092915050565b82818337600083830152505050565b600061058c8385610566565b9350610599838584610571565b82840190509392505050565b60006105b2828486610580565b91508190509392505050565b600082825260208201905092915050565b7f42617463682063616c6c206661696c6564000000000000000000000000000000600082015250565b60006106056011836105be565b9150610610826105cf565b602082019050919050565b60006020820190508181036000830152610634816105f8565b9050919050565b61064481610498565b82525050565b610653816103af565b82525050565b600060408201905061066e600083018561063b565b61067b602083018461064a565b9392505050565b60008115159050919050565b61069781610682565b81146106a257600080fd5b50565b6000815190506106b48161068e565b92915050565b6000602082840312156106d0576106cf6102f3565b5b60006106de848285016106a5565b91505092915050565b60006020820190506106fc600083018461064a565b9291505056fea264697066735822122073bc2203a2f069d57e2a1e414fad52021dff719d42d4cf2d57338a133c4db63864736f6c634300081c0033",
  "devdoc": {
    "kind": "dev",
    "methods": {},
    "version": 1
  },
  "userdoc": {
    "kind": "user",
    "methods": {},
    "version": 1
  },
  "storageLayout": {
    "storage": [],
    "types": null
  }
}