{
  "address": "0x371A6F1557c6fa0AE84757f842D6a11980B0b03A",
  "abi": [
    {
      "inputs": [],
      "name": "InvalidInitialization",
      "type": "error"
    },
    {
      "inputs": [],
      "name": "NotInitializing",
      "type": "error"
    },
    {
      "anonymous": false,
      "inputs": [
        {
          "indexed": false,
          "internalType": "uint64",
          "name": "version",
          "type": "uint64"
        }
      ],
      "name": "Initialized",
      "type": "event"
    },
    {
      "inputs": [
        {
          "internalType": "uint256",
          "name": "amount",
          "type": "uint256"
        }
      ],
      "name": "deposit",
      "outputs": [],
      "stateMutability": "nonpayable",
      "type": "function"
    },
    {
      "inputs": [
        {
          "internalType": "address",
          "name": "to",
          "type": "address"
        },
        {
          "internalType": "uint256",
          "name": "amount",
          "type": "uint256"
        }
      ],
      "name": "depositEip7702",
      "outputs": [],
      "stateMutability": "payable",
      "type": "function"
    },
    {
      "inputs": [
        {
          "internalType": "address",
          "name": "_token",
          "type": "address"
        }
      ],
      "name": "initialize",
      "outputs": [],
      "stateMutability": "nonpayable",
      "type": "function"
    },
    {
      "inputs": [],
      "name": "token",
      "outputs": [
        {
          "internalType": "address",
          "name": "",
          "type": "address"
        }
      ],
      "stateMutability": "view",
      "type": "function"
    },
    {
      "stateMutability": "payable",
      "type": "receive"
    }
  ],
  "transactionHash": "0x1289fc0657236c23f7e7c05d02e750c135e9344764d180ff670a1d4574eb193f",
  "args": [],
  "numDeployments": 3,
  "solcInputHash": "b749f79efc2f5ad3853b6e9ae5d93034",
  "bytecode": "0x6080604052348015600f57600080fd5b506107338061001f6000396000f3fe6080604052600436106100435760003560e01c8063b6b55f251461004f578063c4d66de814610078578063e96e9a93146100a1578063fc0c546a146100bd5761004a565b3661004a57005b600080fd5b34801561005b57600080fd5b5061007660048036038101906100719190610493565b6100e8565b005b34801561008457600080fd5b5061009f600480360381019061009a919061051e565b61018c565b005b6100bb60048036038101906100b6919061054b565b610352565b005b3480156100c957600080fd5b506100d26103f5565b6040516100df919061059a565b60405180910390f35b60008054906101000a900473ffffffffffffffffffffffffffffffffffffffff1673ffffffffffffffffffffffffffffffffffffffff166323b872dd3330846040518463ffffffff1660e01b8152600401610145939291906105c4565b6020604051808303816000875af1158015610164573d6000803e3d6000fd5b505050506040513d601f19601f820116820180604052508101906101889190610633565b5050565b6000610196610419565b905060008160000160089054906101000a900460ff1615905060008260000160009054906101000a900467ffffffffffffffff1690506000808267ffffffffffffffff161480156101e45750825b9050600060018367ffffffffffffffff16148015610219575060003073ffffffffffffffffffffffffffffffffffffffff163b145b905081158015610227575080155b1561025e576040517ff92ee8a900000000000000000000000000000000000000000000000000000000815260040160405180910390fd5b60018560000160006101000a81548167ffffffffffffffff021916908367ffffffffffffffff16021790555083156102ae5760018560000160086101000a81548160ff0219169083151502179055505b856000806101000a81548173ffffffffffffffffffffffffffffffffffffffff021916908373ffffffffffffffffffffffffffffffffffffffff160217905550831561034a5760008560000160086101000a81548160ff0219169083151502179055507fc7f505b2f371ae2175ee4913f4499e1f2633a7b5936321eed1cdaeb6115181d2600160405161034191906106b9565b60405180910390a15b505050505050565b60008054906101000a900473ffffffffffffffffffffffffffffffffffffffff1673ffffffffffffffffffffffffffffffffffffffff1663a9059cbb83836040518363ffffffff1660e01b81526004016103ad9291906106d4565b6020604051808303816000875af11580156103cc573d6000803e3d6000fd5b505050506040513d601f19601f820116820180604052508101906103f09190610633565b505050565b60008054906101000a900473ffffffffffffffffffffffffffffffffffffffff1681565b60008061042461042d565b90508091505090565b60007ff0c57e16840df040f15088dc2f81fe391c3923bec73e23a9662efc9c229c6a0060001b905090565b600080fd5b6000819050919050565b6104708161045d565b811461047b57600080fd5b50565b60008135905061048d81610467565b92915050565b6000602082840312156104a9576104a8610458565b5b60006104b78482850161047e565b91505092915050565b600073ffffffffffffffffffffffffffffffffffffffff82169050919050565b60006104eb826104c0565b9050919050565b6104fb816104e0565b811461050657600080fd5b50565b600081359050610518816104f2565b92915050565b60006020828403121561053457610533610458565b5b600061054284828501610509565b91505092915050565b6000806040838503121561056257610561610458565b5b600061057085828601610509565b92505060206105818582860161047e565b9150509250929050565b610594816104e0565b82525050565b60006020820190506105af600083018461058b565b92915050565b6105be8161045d565b82525050565b60006060820190506105d9600083018661058b565b6105e6602083018561058b565b6105f360408301846105b5565b949350505050565b60008115159050919050565b610610816105fb565b811461061b57600080fd5b50565b60008151905061062d81610607565b92915050565b60006020828403121561064957610648610458565b5b60006106578482850161061e565b91505092915050565b6000819050919050565b600067ffffffffffffffff82169050919050565b6000819050919050565b60006106a361069e61069984610660565b61067e565b61066a565b9050919050565b6106b381610688565b82525050565b60006020820190506106ce60008301846106aa565b92915050565b60006040820190506106e9600083018561058b565b6106f660208301846105b5565b939250505056fea2646970667358221220f234c133389e119f0073997f875ab2d52758a126b8731ee1a1bc2ba8b8f297d964736f6c634300081c0033",
  "devdoc": {
    "errors": {
      "InvalidInitialization()": [
        {
          "details": "The contract is already initialized."
        }
      ],
      "NotInitializing()": [
        {
          "details": "The contract is not initializing."
        }
      ]
    },
    "events": {
      "Initialized(uint64)": {
        "details": "Triggered when the contract has been initialized or reinitialized."
      }
    },
    "kind": "dev",
    "methods": {},
    "version": 1
  },
  "userdoc": {
    "kind": "user",
    "methods": {},
    "version": 1
  },
  "storageLayout": {
    "storage": [
      {
        "astId": 353,
        "contract": "contracts/Vault.sol:Vault",
        "label": "token",
        "offset": 0,
        "slot": "0",
        "type": "t_address"
      }
    ],
    "types": {
      "t_address": {
        "encoding": "inplace",
        "label": "address",
        "numberOfBytes": "20"
      }
    }
  }
}