{
  "address": "0xA3F334e11779Ba175D4DdE101D5A5FeE406A9D08",
  "abi": [
    {
      "inputs": [],
      "name": "InvalidInitialization",
      "type": "error"
    },
    {
      "inputs": [],
      "name": "NotInitializing",
      "type": "error"
    },
    {
      "anonymous": false,
      "inputs": [
        {
          "indexed": false,
          "internalType": "uint64",
          "name": "version",
          "type": "uint64"
        }
      ],
      "name": "Initialized",
      "type": "event"
    },
    {
      "inputs": [
        {
          "internalType": "uint256",
          "name": "amount",
          "type": "uint256"
        }
      ],
      "name": "deposit",
      "outputs": [],
      "stateMutability": "nonpayable",
      "type": "function"
    },
    {
      "inputs": [
        {
          "internalType": "address",
          "name": "_token",
          "type": "address"
        }
      ],
      "name": "initialize",
      "outputs": [],
      "stateMutability": "nonpayable",
      "type": "function"
    },
    {
      "inputs": [],
      "name": "token",
      "outputs": [
        {
          "internalType": "address",
          "name": "",
          "type": "address"
        }
      ],
      "stateMutability": "view",
      "type": "function"
    }
  ],
  "transactionHash": "0x7fdfd5e860030395c04cccbdfea60c5f402da020c58dbaf22322a467cf83b0e8",
  "args": [],
  "numDeployments": 1,
  "solcInputHash": "d247ca922274587f908d5a912c2474f8",
  "bytecode": "0x6080604052348015600f57600080fd5b506105db8061001f6000396000f3fe608060405234801561001057600080fd5b50600436106100415760003560e01c8063b6b55f2514610046578063c4d66de814610062578063fc0c546a1461007e575b600080fd5b610060600480360381019061005b91906103a4565b61009c565b005b61007c6004803603810190610077919061042f565b610140565b005b610086610306565b604051610093919061046b565b60405180910390f35b60008054906101000a900473ffffffffffffffffffffffffffffffffffffffff1673ffffffffffffffffffffffffffffffffffffffff166323b872dd3330846040518463ffffffff1660e01b81526004016100f993929190610495565b6020604051808303816000875af1158015610118573d6000803e3d6000fd5b505050506040513d601f19601f8201168201806040525081019061013c9190610504565b5050565b600061014a61032a565b905060008160000160089054906101000a900460ff1615905060008260000160009054906101000a900467ffffffffffffffff1690506000808267ffffffffffffffff161480156101985750825b9050600060018367ffffffffffffffff161480156101cd575060003073ffffffffffffffffffffffffffffffffffffffff163b145b9050811580156101db575080155b15610212576040517ff92ee8a900000000000000000000000000000000000000000000000000000000815260040160405180910390fd5b60018560000160006101000a81548167ffffffffffffffff021916908367ffffffffffffffff16021790555083156102625760018560000160086101000a81548160ff0219169083151502179055505b856000806101000a81548173ffffffffffffffffffffffffffffffffffffffff021916908373ffffffffffffffffffffffffffffffffffffffff16021790555083156102fe5760008560000160086101000a81548160ff0219169083151502179055507fc7f505b2f371ae2175ee4913f4499e1f2633a7b5936321eed1cdaeb6115181d260016040516102f5919061058a565b60405180910390a15b505050505050565b60008054906101000a900473ffffffffffffffffffffffffffffffffffffffff1681565b60008061033561033e565b90508091505090565b60007ff0c57e16840df040f15088dc2f81fe391c3923bec73e23a9662efc9c229c6a0060001b905090565b600080fd5b6000819050919050565b6103818161036e565b811461038c57600080fd5b50565b60008135905061039e81610378565b92915050565b6000602082840312156103ba576103b9610369565b5b60006103c88482850161038f565b91505092915050565b600073ffffffffffffffffffffffffffffffffffffffff82169050919050565b60006103fc826103d1565b9050919050565b61040c816103f1565b811461041757600080fd5b50565b60008135905061042981610403565b92915050565b60006020828403121561044557610444610369565b5b60006104538482850161041a565b91505092915050565b610465816103f1565b82525050565b6000602082019050610480600083018461045c565b92915050565b61048f8161036e565b82525050565b60006060820190506104aa600083018661045c565b6104b7602083018561045c565b6104c46040830184610486565b949350505050565b60008115159050919050565b6104e1816104cc565b81146104ec57600080fd5b50565b6000815190506104fe816104d8565b92915050565b60006020828403121561051a57610519610369565b5b6000610528848285016104ef565b91505092915050565b6000819050919050565b600067ffffffffffffffff82169050919050565b6000819050919050565b600061057461056f61056a84610531565b61054f565b61053b565b9050919050565b61058481610559565b82525050565b600060208201905061059f600083018461057b565b9291505056fea26469706673582212208f1c780f5a7311ee80af2952a7b605d72de2987c5d12361db509b5ccd548973364736f6c634300081c0033",
  "devdoc": {
    "errors": {
      "InvalidInitialization()": [
        {
          "details": "The contract is already initialized."
        }
      ],
      "NotInitializing()": [
        {
          "details": "The contract is not initializing."
        }
      ]
    },
    "events": {
      "Initialized(uint64)": {
        "details": "Triggered when the contract has been initialized or reinitialized."
      }
    },
    "kind": "dev",
    "methods": {},
    "version": 1
  },
  "userdoc": {
    "kind": "user",
    "methods": {},
    "version": 1
  },
  "storageLayout": {
    "storage": [
      {
        "astId": 1110,
        "contract": "contracts/Vault.sol:Vault",
        "label": "token",
        "offset": 0,
        "slot": "0",
        "type": "t_address"
      }
    ],
    "types": {
      "t_address": {
        "encoding": "inplace",
        "label": "address",
        "numberOfBytes": "20"
      }
    }
  }
}